{
  "_format": "hh-sol-artifact-1",
  "contractName": "Staking",
  "sourceName": "contracts/Staking.sol",
  "abi": [
    {
      "inputs": [
        {
          "internalType": "contract IERC20",
          "name": "stakingToken",
          "type": "address"
        },
        {
          "internalType": "uint256",
          "name": "rewardPerDay",
          "type": "uint256"
        }
      ],
      "stateMutability": "nonpayable",
      "type": "constructor"
    },
    {
      "inputs": [
        {
          "internalType": "address",
          "name": "target",
          "type": "address"
        }
      ],
      "name": "AddressEmptyCode",
      "type": "error"
    },
    {
      "inputs": [
        {
          "internalType": "address",
          "name": "account",
          "type": "address"
        }
      ],
      "name": "AddressInsufficientBalance",
      "type": "error"
    },
    {
      "inputs": [],
      "name": "FailedInnerCall",
      "type": "error"
    },
    {
      "inputs": [],
      "name": "ReentrancyGuardReentrantCall",
      "type": "error"
    },
    {
      "inputs": [
        {
          "internalType": "address",
          "name": "token",
          "type": "address"
        }
      ],
      "name": "SafeERC20FailedOperation",
      "type": "error"
    },
    {
      "anonymous": false,
      "inputs": [
        {
          "indexed": true,
          "internalType": "address",
          "name": "user",
          "type": "address"
        },
        {
          "indexed": false,
          "internalType": "uint256",
          "name": "reward",
          "type": "uint256"
        }
      ],
      "name": "RewardClaimed",
      "type": "event"
    },
    {
      "anonymous": false,
      "inputs": [
        {
          "indexed": true,
          "internalType": "address",
          "name": "user",
          "type": "address"
        },
        {
          "indexed": false,
          "internalType": "uint256",
          "name": "amount",
          "type": "uint256"
        }
      ],
      "name": "Staked",
      "type": "event"
    },
    {
      "anonymous": false,
      "inputs": [
        {
          "indexed": true,
          "internalType": "address",
          "name": "user",
          "type": "address"
        },
        {
          "indexed": false,
          "internalType": "uint256",
          "name": "amount",
          "type": "uint256"
        },
        {
          "indexed": false,
          "internalType": "uint256",
          "name": "reward",
          "type": "uint256"
        }
      ],
      "name": "Withdrawn",
      "type": "event"
    },
    {
      "inputs": [],
      "name": "REWARD_PER_DAY",
      "outputs": [
        {
          "internalType": "uint256",
          "name": "",
          "type": "uint256"
        }
      ],
      "stateMutability": "view",
      "type": "function"
    },
    {
      "inputs": [],
      "name": "STAKING_TOKEN",
      "outputs": [
        {
          "internalType": "contract IERC20",
          "name": "",
          "type": "address"
        }
      ],
      "stateMutability": "view",
      "type": "function"
    },
    {
      "inputs": [],
      "name": "claimRewards",
      "outputs": [],
      "stateMutability": "nonpayable",
      "type": "function"
    },
    {
      "inputs": [
        {
          "internalType": "address",
          "name": "user",
          "type": "address"
        }
      ],
      "name": "getUserReward",
      "outputs": [
        {
          "internalType": "uint256",
          "name": "",
          "type": "uint256"
        }
      ],
      "stateMutability": "view",
      "type": "function"
    },
    {
      "inputs": [
        {
          "internalType": "address",
          "name": "user",
          "type": "address"
        }
      ],
      "name": "getUserStakes",
      "outputs": [
        {
          "components": [
            {
              "internalType": "uint256",
              "name": "amount",
              "type": "uint256"
            },
            {
              "internalType": "uint256",
              "name": "startTimestamp",
              "type": "uint256"
            }
          ],
          "internalType": "struct Staking.Stake[]",
          "name": "",
          "type": "tuple[]"
        }
      ],
      "stateMutability": "view",
      "type": "function"
    },
    {
      "inputs": [
        {
          "internalType": "uint256",
          "name": "amount",
          "type": "uint256"
        }
      ],
      "name": "stake",
      "outputs": [],
      "stateMutability": "nonpayable",
      "type": "function"
    },
    {
      "inputs": [
        {
          "internalType": "address",
          "name": "user",
          "type": "address"
        }
      ],
      "name": "viewRewards",
      "outputs": [
        {
          "internalType": "uint256",
          "name": "",
          "type": "uint256"
        }
      ],
      "stateMutability": "view",
      "type": "function"
    },
    {
      "inputs": [],
      "name": "withdraw",
      "outputs": [],
      "stateMutability": "nonpayable",
      "type": "function"
    }
  ],
  "bytecode": "0x60c06040523480156200001157600080fd5b50604051620017143803806200171483398181016040528101906200003791906200013c565b60016000819055508173ffffffffffffffffffffffffffffffffffffffff1660808173ffffffffffffffffffffffffffffffffffffffff16815250508060a08181525050505062000183565b600080fd5b600073ffffffffffffffffffffffffffffffffffffffff82169050919050565b6000620000b58262000088565b9050919050565b6000620000c982620000a8565b9050919050565b620000db81620000bc565b8114620000e757600080fd5b50565b600081519050620000fb81620000d0565b92915050565b6000819050919050565b620001168162000101565b81146200012257600080fd5b50565b60008151905062000136816200010b565b92915050565b6000806040838503121562000156576200015562000083565b5b60006200016685828601620000ea565b9250506020620001798582860162000125565b9150509250929050565b60805160a05161154f620001c56000396000818161052e015261096d01526000818161018b0152818161037e015281816104080152610655015261154f6000f3fe608060405234801561001057600080fd5b50600436106100885760003560e01c8063842e29811161005b578063842e2981146100dd578063a694fc3a1461010d578063c75ebb8214610129578063da40ef801461015957610088565b80630479d6441461008d578063372500ab146100ab5780633ccfd60b146100b55780638141feb3146100bf575b600080fd5b610095610189565b6040516100a29190610edb565b60405180910390f35b6100b36101ad565b005b6100bd6102b4565b005b6100c761052c565b6040516100d49190610f0f565b60405180910390f35b6100f760048036038101906100f29190610f6d565b610550565b6040516101049190611087565b60405180910390f35b610127600480360381019061012291906110d5565b610602565b005b610143600480360381019061013e9190610f6d565b610786565b6040516101509190610f0f565b60405180910390f35b610173600480360381019061016e9190610f6d565b6107cf565b6040516101809190610f0f565b60405180910390f35b7f000000000000000000000000000000000000000000000000000000000000000081565b6101b561082b565b60006101c033610871565b905060008111610205576040517f08c379a00000000000000000000000000000000000000000000000000000000081526004016101fc9061115f565b60405180910390fd5b80600260003373ffffffffffffffffffffffffffffffffffffffff1673ffffffffffffffffffffffffffffffffffffffff168152602001908152602001600020600082825461025491906111ae565b925050819055503373ffffffffffffffffffffffffffffffffffffffff167f106f923f993c2149d49b4255ff723acafa1f2d94393f561d3eda32ae348f7241826040516102a19190610f0f565b60405180910390a2506102b26109dd565b565b6102bc61082b565b60006102c733610871565b905060006102d4336109e7565b9050600160003373ffffffffffffffffffffffffffffffffffffffff1673ffffffffffffffffffffffffffffffffffffffff16815260200190815260200160002060006103219190610e11565b81600260003373ffffffffffffffffffffffffffffffffffffffff1673ffffffffffffffffffffffffffffffffffffffff168152602001908152602001600020600082825461037091906111ae565b925050819055506103c233827f000000000000000000000000000000000000000000000000000000000000000073ffffffffffffffffffffffffffffffffffffffff16610ac29092919063ffffffff16565b61044c33600260003373ffffffffffffffffffffffffffffffffffffffff1673ffffffffffffffffffffffffffffffffffffffff168152602001908152602001600020547f000000000000000000000000000000000000000000000000000000000000000073ffffffffffffffffffffffffffffffffffffffff16610ac29092919063ffffffff16565b3373ffffffffffffffffffffffffffffffffffffffff167f92ccf450a286a957af52509bc1c9939d1a6a481783e142e41e2499f0bb66ebc682600260003373ffffffffffffffffffffffffffffffffffffffff1673ffffffffffffffffffffffffffffffffffffffff168152602001908152602001600020546040516104d39291906111e2565b60405180910390a26000600260003373ffffffffffffffffffffffffffffffffffffffff1673ffffffffffffffffffffffffffffffffffffffff16815260200190815260200160002081905550505061052a6109dd565b565b7f000000000000000000000000000000000000000000000000000000000000000081565b6060600160008373ffffffffffffffffffffffffffffffffffffffff1673ffffffffffffffffffffffffffffffffffffffff168152602001908152602001600020805480602002602001604051908101604052809291908181526020016000905b828210156105f7578382906000526020600020906002020160405180604001604052908160008201548152602001600182015481525050815260200190600101906105b1565b505050509050919050565b61060a61082b565b6000811161064d576040517f08c379a00000000000000000000000000000000000000000000000000000000081526004016106449061127d565b60405180910390fd5b61069a3330837f000000000000000000000000000000000000000000000000000000000000000073ffffffffffffffffffffffffffffffffffffffff16610b41909392919063ffffffff16565b600160003373ffffffffffffffffffffffffffffffffffffffff1673ffffffffffffffffffffffffffffffffffffffff1681526020019081526020016000206040518060400160405280838152602001428152509080600181540180825580915050600190039060005260206000209060020201600090919091909150600082015181600001556020820151816001015550503373ffffffffffffffffffffffffffffffffffffffff167f9e71bc8eea02a63969f509818f2dafb9254532904319f9dbda79b67bd34a5f3d826040516107739190610f0f565b60405180910390a26107836109dd565b50565b6000600260008373ffffffffffffffffffffffffffffffffffffffff1673ffffffffffffffffffffffffffffffffffffffff168152602001908152602001600020549050919050565b6000600260008373ffffffffffffffffffffffffffffffffffffffff1673ffffffffffffffffffffffffffffffffffffffff1681526020019081526020016000205461081a83610871565b61082491906111ae565b9050919050565b600260005403610867576040517f3ee5aeb500000000000000000000000000000000000000000000000000000000815260040160405180910390fd5b6002600081905550565b6000806000905060005b600160008573ffffffffffffffffffffffffffffffffffffffff1673ffffffffffffffffffffffffffffffffffffffff168152602001908152602001600020805490508110156109d3576000600160008673ffffffffffffffffffffffffffffffffffffffff1673ffffffffffffffffffffffffffffffffffffffff16815260200190815260200160002082815481106109185761091761129d565b5b906000526020600020906002020160405180604001604052908160008201548152602001600182015481525050905060006201518082602001514261095d91906112cc565b610967919061132f565b905060007f00000000000000000000000000000000000000000000000000000000000000006103e884600001518461099f9190611360565b6109a9919061132f565b6109b39190611360565b905080856109c191906111ae565b9450505050808060010191505061087b565b5080915050919050565b6001600081905550565b6000806000905060005b600160008573ffffffffffffffffffffffffffffffffffffffff1673ffffffffffffffffffffffffffffffffffffffff16815260200190815260200160002080549050811015610ab857600160008573ffffffffffffffffffffffffffffffffffffffff1673ffffffffffffffffffffffffffffffffffffffff1681526020019081526020016000208181548110610a8c57610a8b61129d565b5b90600052602060002090600202016000015482610aa991906111ae565b915080806001019150506109f1565b5080915050919050565b610b3c838473ffffffffffffffffffffffffffffffffffffffff1663a9059cbb8585604051602401610af59291906113b1565b604051602081830303815290604052915060e01b6020820180517bffffffffffffffffffffffffffffffffffffffffffffffffffffffff8381831617835250505050610bc3565b505050565b610bbd848573ffffffffffffffffffffffffffffffffffffffff166323b872dd868686604051602401610b76939291906113da565b604051602081830303815290604052915060e01b6020820180517bffffffffffffffffffffffffffffffffffffffffffffffffffffffff8381831617835250505050610bc3565b50505050565b6000610bee828473ffffffffffffffffffffffffffffffffffffffff16610c5a90919063ffffffff16565b90506000815114158015610c13575080806020019051810190610c119190611449565b155b15610c5557826040517f5274afe7000000000000000000000000000000000000000000000000000000008152600401610c4c9190611476565b60405180910390fd5b505050565b6060610c6883836000610c70565b905092915050565b606081471015610cb757306040517fcd786059000000000000000000000000000000000000000000000000000000008152600401610cae9190611476565b60405180910390fd5b6000808573ffffffffffffffffffffffffffffffffffffffff168486604051610ce09190611502565b60006040518083038185875af1925050503d8060008114610d1d576040519150601f19603f3d011682016040523d82523d6000602084013e610d22565b606091505b5091509150610d32868383610d3d565b925050509392505050565b606082610d5257610d4d82610dcc565b610dc4565b60008251148015610d7a575060008473ffffffffffffffffffffffffffffffffffffffff163b145b15610dbc57836040517f9996b315000000000000000000000000000000000000000000000000000000008152600401610db39190611476565b60405180910390fd5b819050610dc5565b5b9392505050565b600081511115610ddf5780518082602001fd5b6040517f1425ea4200000000000000000000000000000000000000000000000000000000815260040160405180910390fd5b5080546000825560020290600052602060002090810190610e329190610e35565b50565b5b80821115610e5857600080820160009055600182016000905550600201610e36565b5090565b600073ffffffffffffffffffffffffffffffffffffffff82169050919050565b6000819050919050565b6000610ea1610e9c610e9784610e5c565b610e7c565b610e5c565b9050919050565b6000610eb382610e86565b9050919050565b6000610ec582610ea8565b9050919050565b610ed581610eba565b82525050565b6000602082019050610ef06000830184610ecc565b92915050565b6000819050919050565b610f0981610ef6565b82525050565b6000602082019050610f246000830184610f00565b92915050565b600080fd5b6000610f3a82610e5c565b9050919050565b610f4a81610f2f565b8114610f5557600080fd5b50565b600081359050610f6781610f41565b92915050565b600060208284031215610f8357610f82610f2a565b5b6000610f9184828501610f58565b91505092915050565b600081519050919050565b600082825260208201905092915050565b6000819050602082019050919050565b610fcf81610ef6565b82525050565b604082016000820151610feb6000850182610fc6565b506020820151610ffe6020850182610fc6565b50505050565b60006110108383610fd5565b60408301905092915050565b6000602082019050919050565b600061103482610f9a565b61103e8185610fa5565b935061104983610fb6565b8060005b8381101561107a5781516110618882611004565b975061106c8361101c565b92505060018101905061104d565b5085935050505092915050565b600060208201905081810360008301526110a18184611029565b905092915050565b6110b281610ef6565b81146110bd57600080fd5b50565b6000813590506110cf816110a9565b92915050565b6000602082840312156110eb576110ea610f2a565b5b60006110f9848285016110c0565b91505092915050565b600082825260208201905092915050565b7f4e6f207265776172647320746f20636c61696d00000000000000000000000000600082015250565b6000611149601383611102565b915061115482611113565b602082019050919050565b600060208201905081810360008301526111788161113c565b9050919050565b7f4e487b7100000000000000000000000000000000000000000000000000000000600052601160045260246000fd5b60006111b982610ef6565b91506111c483610ef6565b92508282019050808211156111dc576111db61117f565b5b92915050565b60006040820190506111f76000830185610f00565b6112046020830184610f00565b9392505050565b7f5374616b696e6720616d6f756e74206d7573742062652067726561746572207460008201527f68616e2030000000000000000000000000000000000000000000000000000000602082015250565b6000611267602583611102565b91506112728261120b565b604082019050919050565b600060208201905081810360008301526112968161125a565b9050919050565b7f4e487b7100000000000000000000000000000000000000000000000000000000600052603260045260246000fd5b60006112d782610ef6565b91506112e283610ef6565b92508282039050818111156112fa576112f961117f565b5b92915050565b7f4e487b7100000000000000000000000000000000000000000000000000000000600052601260045260246000fd5b600061133a82610ef6565b915061134583610ef6565b92508261135557611354611300565b5b828204905092915050565b600061136b82610ef6565b915061137683610ef6565b925082820261138481610ef6565b9150828204841483151761139b5761139a61117f565b5b5092915050565b6113ab81610f2f565b82525050565b60006040820190506113c660008301856113a2565b6113d36020830184610f00565b9392505050565b60006060820190506113ef60008301866113a2565b6113fc60208301856113a2565b6114096040830184610f00565b949350505050565b60008115159050919050565b61142681611411565b811461143157600080fd5b50565b6000815190506114438161141d565b92915050565b60006020828403121561145f5761145e610f2a565b5b600061146d84828501611434565b91505092915050565b600060208201905061148b60008301846113a2565b92915050565b600081519050919050565b600081905092915050565b60005b838110156114c55780820151818401526020810190506114aa565b60008484015250505050565b60006114dc82611491565b6114e6818561149c565b93506114f68185602086016114a7565b80840191505092915050565b600061150e82846114d1565b91508190509291505056fea2646970667358221220aaf56a3a9a7cfa1a1641f60ad1f9f0ef89fbae482b2c58ff4cda7cf10b42620a64736f6c63430008180033",
  "linkReferences": {},
  "deployedLinkReferences": {}
}